:1000000000308A0061280000FF00030E8301A10078
:100010000A08A0008A010408A2007708A300780853
:10002000A4007908A5007A08A600831383128B1E0A
:100030001B280B192C28220884002308F700240809
:10004000F8002508F9002608FA0020088A00210E89
:100050008300FF0E7F0E09008A110A123A280A1047
:100060008A100A1182070434053406340734083430
:1000700009340A34E7308100A70803190614280858
:10008000270203180610A70A2708643C0319A701D2
:10009000AA0A0319AB0A2B08263C03185D28FF3A6D
:1000A000031D56282A08103C03185D28AB01AA013D
:1000B000A90A2908063C0319A9010B118A110A1281
:1000C0001B28A701A801A901AB01AA0183161F14CF
:1000D0009F141F159F1107309C0083131F30830549
:1000E0000912831290010030F8009200003083164C
:1000F00092001F149F141F159F1183121F10F030C0
:1001000097059D050030831686000108C039023826
:1001100081000108C039E738810083128B16C03096
:0E0120008B0429082F20F800A8009128630006
:02400E00733FFE
:00000001FF
;PIC16F877A
;CRC=AC63  CREATED="27-Kas-22 19:25"
